:100000000C94B8010C94E0010C94E0010C94BF1224
:100010000C94BF120C94BF120C94E0010C94E001FC
:100020000C94E0010C94E0010C94E0010C94E001CC
:100030000C94E0010C94E0010C94E0010C94E001BC
:100040000C9469100C94E0010C94AA0E0C94DC0E34
:100050000C94E0010C94E0010C94E0010C94E0019C
:100060000C94E0010C94E001EE04FD040B0519056D
:1000700027053505430551055F056E057D058C0592
:100080009B05AA05436F6E6E656374696F6E20529F
:100090006566757365643A206E6F74206175746867
:1000A0006F72697A65640D0A00436F6E6E656374E2
:1000B000696F6E20526566757365643A206261648B
:1000C0002075736572206E616D65206F722070619E
:1000D0007373776F72640D0A00436F6E6E6563749D
:1000E000696F6E20526566757365643A2073657238
:1000F00076657220756E617661696C61626C650D02
:100100000A00436F6E6E656374696F6E2052656698
:10011000757365643A206964656E746966696572B1
:100120002072656A65637465640D0A00436F6E6EC4
:10013000656374696F6E20526566757365643A20F5
:10014000756E61636365707461626C652070726F57
:10015000746F636F6C2076657273696F6E0D0A0041
:10016000436F6E6E656374696F6E20416363657083
:100170007465640D0A00436C69656E7420697320B0
:10018000446973636F6E6E656374696E670D0A0010
:1001900050494E4720526573706F6E73650D0A00AB
:1001A00050494E4720526571756573740D0A0055AC
:1001B0006E7375627363726962652041636B6E6F03
:1001C000776C6564676D656E740D0A00436C6965D4
:1001D0006E7420556E737562736372696265207206
:1001E0006571756573740D0A005375627363726986
:1001F00062652041636B6E6F776C6564676D656ED9
:10020000740D0A00436C69656E74205375627363E4
:100210007269626520726571756573740D0A0050AC
:1002200075626C69736820436F6D706C65746520CE
:1002300028617373757265642064656C6976657294
:100240007920706172742033290D0A005075626C38
:100250006973682052656C656173652028617373EA
:10026000757265642064656C697665727920706169
:1002700072742032290D0A005075626C697368200F
:10028000526563656976656420286173737572656C
:10029000642064656C69766572792070617274207F
:1002A00031290D0A005075626C6973682041636BD7
:1002B0006E6F776C6564676D656E740D0A005075BE
:1002C000626C697368206D6573736167650D0A0000
:1002D000436F6E6E6563742041636B6E6F776C6500
:1002E00064676D656E740D0A00436C69656E7420F9
:1002F0007265717565737420746F20636F6E6E65BF
:10030000637420746F205365727665720D0A000065
:1003100000000800020100000304070000000000C4
:1003200000000001020408102040800102040810AF
:10033000200102040810200404040404040404023C
:10034000020202020203030303030300000000236E
:10035000002600290000000000250028002B0000D6
:10036000000000240027002A00004B0D0C0F660D32
:1003700011241FBECFEFD8E0DEBFCDBF13E0A0E059
:10038000B1E0E2E9FFE202C005900D92AA35B107A3
:10039000D9F727E0AAE5B3E001C01D92A030B2076B
:1003A000E1F711E0C7EBD1E004C02197FE010E9404
:1003B0003515C53BD107C9F70E943A0F0C94BC17FD
:1003C0000C9400006115710579F0FB01019000208B
:1003D000E9F73197AF01461B570BDC01ED91FC911A
:1003E0000280F381E02D099480E090E00895FC0103
:1003F00010821486158616868FEF90E0908B878783
:10040000128A118ADF01AB5BBF4F11961C921E92BC
:10041000A450BF4F11961C921E92129611961C92D8
:100420001E9212961C9211961D921D921D921C9264
:10043000139714961D921D921D921C921397149659
:100440001D921D921D921C921397A05DBE4F119696
:100450001C921E92129683E08C9311961D921D920F
:100460001D921C92139714961C9211961C92E95798
:10047000FD4F408351836283738308950F931F93CD
:10048000CF93DF938B01EB0109900020E9F72197CF
:10049000C61BD70BCE01D7FF02C081509F4F692FDB
:1004A00082E196E00E94830FCE0160E071E00E943D
:1004B000E014682F82E196E00E94830FB80182E188
:1004C00096E0DF91CF911F910F910C94810FCF9304
:1004D000DF93EB01C038D1056CF0BE016F77772751
:1004E000605882E196E00E94830FCC0FCD2FCC1F85
:1004F000DD0BF0CF6C2F82E196E0DF91CF910C9471
:10050000830F8F929F92AF92BF92CF92DF92EF9222
:10051000FF920F931F93CF93DF93FC012485222337
:1005200009F43FC0EC010E94B3106B017C018E0105
:100530000F571D4FF80180819181A281B3819E01E7
:1005400029573D4FF9012081318142815381460174
:100550005701881A990AAA0ABB0AA8EEB3E00E94BA
:100560003B1586169706A806B906D8F0F801C08292
:10057000D182E282F38260EC82E196E00E94830FF6
:1005800060E070E0CE01DF91CF911F910F91FF905D
:10059000EF90DF90CF90BF90AF909F908F900C9492
:1005A0006702DF91CF911F910F91FF90EF90DF9045
:1005B000CF90BF90AF909F908F9008953F924F92B1
:1005C0005F926F927F928F929F92AF92BF92CF92E3
:1005D000DF92EF92FF920F931F93CF93DF93CDB7EC
:1005E000DEB727970FB6F894DEBF0FBECDBF3C0134
:1005F0002B01342EB22E9C2C8FEF90E0F301908BC8
:10060000878760E182E196E00E94830F87E0E6E061
:10061000F1E09E012F5F3F4F6901D90101900D92DA
:100620008A95E1F7F90101900020E9F73197BF01C0
:10063000621B730BF20101900020E9F73197E41976
:10064000F509E60FF71FA11004C0BF01685F7F4FD7
:100650001DC0AC8DBD8D0D900020E9F711979D0157
:100660004C8D5D8D241B350BAE8DBF8D0D90002004
:10067000E9F71197CD014E8D5F8D841B950BBF015E
:10068000645F7F4F620F731F680F791F3320C1F0C3
:10069000F80101900020E9F73197E01BF10B6E5F44
:1006A0007F4F6E0F7F1FBB2059F0F7010190002094
:1006B000E9F73197EE19FF096E5F7F4F6E0F7F1FCD
:1006C000C3010E946702B601C3010E943E02F3010A
:1006D000E058FD4F608182E196E00E94830F8B8D90
:1006E0009B2D52E0359E900D1124E2E09E9F800DDF
:1006F0001124F4E08F9F800C11248A2D22E0829E29
:10070000800D1124692D32E0839F600D1124660F46
:1007100082E196E00E94830F630149E7C41A4DEF1E
:10072000D40AF60180819181A281B381692F7A2F49
:100730008B2F992782E196E00E94830FF60160815A
:1007400071818281938182E196E00E94830FB201E0
:10075000C3010E943E02AA2051F06C8D7D8DC30121
:100760000E943E026E8D7F8DC3010E943E023320A7
:1007700051F0B801C3010E943E02BB2021F0B70135
:10078000C3010E943E0227960FB6F894DEBF0FBE4B
:10079000CDBFDF91CF911F910F91FF90EF90DF9030
:1007A000CF90BF90AF909F908F907F906F905F9011
:1007B0004F903F900895BF92CF92DF92EF92FF92B9
:1007C0000F931F93CF93DF93EC01B42E942F84E00B
:1007D000689F900D1124692F685E660F620F82E199
:1007E00096E00E94830FF70101900020E9F7BF0116
:1007F0006E197F096F5F7F4FBB2011F06E5F7F4FD7
:10080000F60101900020E9F73197EC19FD096E0F10
:100810007F1FCE010E946702B701CE010E943E02F7
:10082000BB2051F0612F82E196E00E94830F602F80
:1008300082E196E00E94830FB60182E196E0DF91AB
:10084000CF911F910F91FF90EF90DF90CF90BF90CD
:100850000C94810F0F931F93CF93DF938C01EB01C7
:1008600060E482E196E00E94830F62E070E0C801DC
:100870000E9467026D2F82E196E00E94830F6C2F29
:1008800082E196E0DF91CF911F910F910C94830F3D
:100890000F931F93CF93DF938C01EB0160E582E10F
:1008A00096E00E94830F62E070E0C8010E94670238
:1008B0006D2F82E196E00E94830F6C2F82E196E01B
:1008C000DF91CF911F910F910C94830F0F931F9382
:1008D000CF93DF938C01EA01660F660F660F6E59A6
:1008E00082E196E00E94830F62E070E0C8010E94FE
:1008F00067026D2F82E196E00E94830F6C2F82E1E8
:1009000096E0DF91CF911F910F910C94830F0F937D
:100910001F93CF93DF938C01EB0160E782E196E0B8
:100920000E94830F62E070E0C8010E9467026D2F91
:1009300082E196E00E94830F6C2F82E196E0DF91C6
:10094000CF911F910F910C94830FDF92EF92FF9242
:100950000F931F93CF93DF937C01142FD52EE901C2
:10096000660F660F660F6E5782E196E00E94830F56
:10097000FE0101900020E9F7BF016C1B7D0B6C5F4D
:100980007F4FC7010E9467026D2D82E196E00E94B1
:10099000830F612F82E196E00E94830FBE01C701A1
:1009A0000E943E02602F82E196E0DF91CF911F917D
:1009B0000F91FF90EF90DF900C94830F0F931F9394
:1009C000CF93DF93862F90E0FC013197EE30F10555
:1009D00008F0CEC0EC5CFF4F0C943515C9EED2E0A8
:1009E0000EE013E0FE01649187EE95E00E94830F14
:1009F00021960C171D07B1F7BBC0C0EDD2E0FE0178
:100A0000649187EE95E00E94830F2196F2E0C83E44
:100A1000DF07A9F7ADC0CEEBD2E0FE01649187EE0F
:100A200095E00E94830F2196F2E0CF3CDF07A9F703
:100A30009FC0C5EAD2E0FE01649187EE95E00E9476
:100A4000830F2196F2E0CD3BDF07A9F791C0C8E7FD
:100A5000D2E0FE01649187EE95E00E94830F21961B
:100A6000F2E0C43ADF07A9F783C0CCE4D2E0FE018C
:100A7000649187EE95E00E94830F2196F2E0C737DC
:100A8000DF07A9F775C0CFE1D2E0FE01649187EEE0
:100A900095E00E94830F2196F2E0CB34DF07A9F79F
:100AA00067C0C4E0D2E0FE01649187EE95E00E9449
:100AB000830F2196F2E0CE31DF07A9F759C0C9EEC6
:100AC000D1E003E012E0FE01649187EE95E00E9420
:100AD000830F21960C171D07B1F74AC0CCECD1E06B
:100AE00008EE11E0FE01649187EE95E00E94830F0D
:100AF00021960C171D07B1F73BC0CFEAD1E00BECF4
:100B000011E0FE01649187EE95E00E94830F21962B
:100B10000C171D07B1F72CC0C0EAD1E00EEA11E0B6
:100B2000FE01649187EE95E00E94830F21960C17D9
:100B30001D07B1F71DC0C0E9D1E00FE911E0FE01CA
:100B4000649187EE95E00E94830F21960C171D0794
:100B5000B1F70EC0C6E7D1E00FE811E0FE016491E5
:100B600087EE95E00E94830F21960C171D07B1F7C1
:100B7000DF91CF911F910F9108950F931F93CF9302
:100B8000DF93623081F140F4662391F0613009F027
:100B90005FC0CCE2D1E01BC0643009F440C088F1F2
:100BA000653009F055C0C4E8D0E008EA10E046C05E
:100BB000C0E6D1E005E711E0FE01649187EE95E023
:100BC0000E94830F21960C171D07B1F741C0FE014B
:100BD000649187EE95E00E94830F2196F1E0CF3576
:100BE000DF07A9F735C0C2E0D1E0FE01649187EECE
:100BF00095E00E94830F2196F1E0CB32DF07A9F741
:100C000027C0C9EDD0E0FE01649187EE95E00E9417
:100C1000830F2196F1E0C130DF07A9F719C0C9EAB7
:100C2000D0E008ED10E0FE01649187EE95E00E94AF
:100C3000830F21960C171D07B1F70AC0FE016491BE
:100C400087EE95E00E94830F21960C171D07B1F7E0
:100C5000DF91CF911F910F910895FC01E258FD4F54
:100C600080819181019631F08081918101969183FB
:100C70008083089511821082808191810895FC0102
:100C8000868508952F923F924F925F926F927F9246
:100C90008F929F92AF92BF92CF92DF92EF92FF928C
:100CA0000F931F93CF93DF9333243394A4E02A2E22
:100CB00082E196E00E94720D892B09F406C482E15C
:100CC00096E00E948C0DEC01082F80915C0381114D
:100CD00018C18091A2049091A304A091A404B091A2
:100CE000A504883C9105A105B105E0F48091A2041A
:100CF0009091A304A091A404B091A504AC01BD01FE
:100D00004F5F5F4F6F4F7F4F4093A2045093A304F8
:100D10006093A4047093A504845A9C4FFC01EE5A7E
:100D2000FE4FC0830A3021F68091A2049091A30463
:100D3000A091A404B091A504845A9C4FFC01EE5AE2
:100D4000FE4F108230925A036EEA74E087EE95E00F
:100D50000E94810F6EE573E08EEA94E00E946B17AB
:100D6000892B09F46BC030925D036DE071E08EEA6F
:100D700094E00E946B17892B11F092E03FC066E16E
:100D800071E08EEA94E00E946B17892B11F0E3E08A
:100D900052C06DE171E08EEA94E00E946B17892BDE
:100DA00029F0FAE1FA95F1F700C008C067E271E0B6
:100DB0008EEA94E00E946B17892B19F020925D0354
:100DC00095C060E371E08EEA94E00E946B17892B76
:100DD00041F468E371E08EEA94E00E946B17892B7E
:100DE00021F085E080935D0381C063E471E08EEAC9
:100DF00094E00E946B17892B21F096E090935D039D
:100E000075C063E571E08EEA94E00E946B17892B50
:100E100089F46FE571E08EEA94E00E946B17892BEC
:100E200049F46CE671E08EEA94E00E946B17892B1E
:100E300009F45CC0E7E0E0935D0358C06CE571E045
:100E40008EEA94E00E946B17892B19F030925B03B5
:100E50004DC066E771E08EEA94E00E946B17892B23
:100E600021F0F2E0F0935B0341C06EE270E08EEAA5
:100E700094E00E945917892B21F083E080935B0353
:100E800035C06FE571E08EEA94E00E946B17892B04
:100E900021F095E090935B0329C06CE771E08EEA46
:100EA00094E00E946B17892B99F020925B0330929B
:100EB0005C0364E871E087EE95E00E948E0F8CE59C
:100EC00093E00E949E0C30926803109269030EC05A
:100ED0006CE371E08EEA94E00E946B17892B31F08D
:100EE00020925B0310925C0310926A031092A2049A
:100EF0001092A3041092A4041092A5041092AE04C0
:100F0000D7CE1C2F12951F708FEF810F8E3008F0F7
:100F1000CFCE1092A6041092A7041092A8041092AB
:100F2000A9041092AA041092AB041092AC0410927F
:100F3000AD0462E070E080E090E00E94E410812C5B
:100F4000912C5401839480915C03811195C01BC046
:100F50004090A6045090A7046090A8047090A90443
:100F6000AD2DAF77B0E0A50194010E943B15460E70
:100F7000571E681E791E4092A6045092A7046092E4
:100F8000A8047092A9048091A6049091A704A0914E
:100F9000A804B091A9048093AA049093AB04A093F1
:100FA000AC04B093AD044091A6045091A7046091A5
:100FB000A8047091A9042AE030E087EE95E00E9431
:100FC000F60F80915C03882309F472CE612F8CE5C3
:100FD00093E00E94DE041092A2041092A3041092E7
:100FE000A4041092A5048091A6049091A704A09156
:100FF000A804B091A904AC01BD0141505109610997
:1010000071094093A6045093A7046093A8047093B9
:10101000A904892B8A2B8B2B09F4D0C082E196E09E
:101020000E94720D892B09F4C9C0C090A204D0900F
:10103000A304E090A404F090A504D701C601019692
:10104000A11DB11D8093A2049093A304A093A404B6
:10105000B093A50482E196E00E948C0D9601245A7B
:101060003C4FF901EE5AFE4F808361E070E080E072
:1010700090E00E94E410B7CF82E196E00E94720DEA
:10108000892B09F460CF82E196E00E948C0D7C01EF
:10109000D82EBC0177274AE050E087EE95E00E9409
:1010A0005710033421F4ECE4EE1261C006C00B3299
:1010B00009F05DC0F0E5EF125AC08091A60490914E
:1010C000A704A091A804B091A904892B8A2B8B2B8B
:1010D00009F04DC01092A2041092A3041092A4042F
:1010E0001092A5048091A2049091A304A091A4045D
:1010F000B091A504AC01BD014F5F5F4F6F4F7F4FB3
:101100004093A2045093A3046093A4047093A50495
:10111000FC01E45AFC4FEE5AFE4F00838091A2047A
:101120009091A304A091A404B091A504AC01BD01C9
:101130004F5F5F4F6F4F7F4F4093A2045093A304C4
:101140006093A4047093A504FC01E45AFC4FEE5A8A
:10115000FE4FE08210925C0310926A0310926803C3
:1011600062EC71E087EE95E00E948E0FECCEE7FE18
:10117000EFCE4090A6045090A7046090A804709011
:10118000A904AE2DAF77B0E0A50194010E943B15F4
:10119000460E571E681E791E4092A6045092A70460
:1011A0006092A8047092A904E7E0880C991CAA1C1C
:1011B000BB1CEA95D1F769E971E0D4CF6FED71E01E
:1011C00087EE95E00E948E0F123011F58091AE04EB
:1011D00090E0982F88272091AF04820F911D909363
:1011E0006C0380936B0380916B0390916C03892B4C
:1011F00031F430926A038CE593E00E94C60C609152
:101200006B0370916C038CE593E00E94BD0550CD9B
:10121000133009F0F3C08090AE04912C982C8824F0
:101220008091AF04880E911C092C000CAA08BB0801
:101230006EE971E087EE95E00E94810F10926E03D7
:1012400010926D0300EB14E062E0462E512C612CED
:10125000712C7501640182E0C80ED11CE11CF11CE7
:101260004C145D046E047F04F0F4F801608187EE95
:1012700095E00E94830F80916D0390916E039C0115
:101280002F5F3F4F30936E0320936D03F801219140
:101290008F01FC01E45AFC4F238BFFEF4F1A5F0ACA
:1012A0006F0A7F0AD6CFC670DD27D595C7957C2EED
:1012B000E0916D03F0916E03E45AFC4F138A68EAE3
:1012C00071E087EE95E00E94810F80916D0390910F
:1012D0006E039093A2038093A10310926E03109269
:1012E0006D03CC23F9F0C601845A9C4FFC01EE5AE1
:1012F000FE4F008110E0102F0027D501C401039696
:10130000A11DB11DFC01E45AFC4FEE5AFE4F808135
:10131000080F111D7501640184E0C80ED11CE11C89
:10132000F11C02C000E010E0E601CE5ADE4FC45AC4
:10133000DC4F8091AA049091AB04A091AC04B091D1
:10134000AD04C816D906EA06FB06D8F4688187EE14
:1013500095E00E94830F80916D0390916E039C0134
:101360002F5F3F4F30936E0320936D032991FC0153
:10137000ED55FC4F20839FEFC91AD90AE90AF90AF3
:10138000D8CFE0916D03F0916E03ED55FC4F1082C4
:1013900066EA71E087EE95E00E948E0F80916D0302
:1013A00090916E0390939E0480939D04E1E07E12E1
:1013B00006C0B8018CE593E00E942A0408C0F2E060
:1013C0007F1205C0B8018CE593E00E9448040091AB
:1013D0009D0410919E044091A1035091A20323EA21
:1013E00033E06FE673E08CE593E00E94F40C81E05B
:1013F00090E09093A00480939F045ACC1530A9F4F8
:1014000065EB71E087EE95E00E94810F4091AE049C
:1014100050E0542F44278091AF04480F511D60E0E5
:101420008CE593E00E94660424C01630A1F465EBBD
:1014300071E087EE95E00E94810F6091AE0470E04C
:10144000762F66278091AF04680F711D8CE593E0BD
:101450000E9487040EC0143031F0173021F0812F24
:101460008D7F8930B1F465EB71E087EE95E00E94E5
:10147000810F6091AE0470E0762F66278091AF04F3
:10148000680F711D4AE050E087EE95E00E9457100A
:101490000FCC1C3009F00CCC10925C031092680346
:1014A00062EC71E087EE95E00E948E0F00EA1FE08B
:1014B00020E030E040ED51E062ED71E08CE593E03A
:1014C0000E94BB0A1092A104F3CBDF91CF911F9130
:1014D0000F91FF90EF90DF90CF90BF90AF909F90D3
:1014E0008F907F906F905F904F903F902F900895D6
:1014F0008F929F92AF92BF92CF92DF92EF92FF9224
:101500000F931F93CF93DF938C01EB0149015A0195
:101510000E94B3106B017C0161EE71E0C80102967C
:101520000E94641710925B03BE0182E196E00E9464
:10153000E2010E94B31020915B0321110EC0DC0177
:10154000CB018C199D09AE09BF0988159905AA051B
:10155000BB0518F40E944206ECCF822FDF91CF9199
:101560001F910F91FF90EF90DF90CF90BF90AF90C1
:101570009F908F9008954F925F926F927F92AF925B
:10158000BF92CF92DF92EF92FF920F931F93CF9370
:10159000DF93EC015B0128013901BA0102960E9438
:1015A00064170E94B3106B017C011982B50182E1BE
:1015B00096E00E94E2010E94B310298121110EC021
:1015C000DC01CB018C199D09AE09BF098415950575
:1015D000A605B70518F40E944206EDCF8981DF9178
:1015E000CF911F910F91FF90EF90DF90CF90BF9020
:1015F000AF907F906F905F904F900895AF92BF92A1
:10160000CF92DF92EF92FF920F931F93CF93DF93CE
:10161000EC016C012BEBC21A2EEFD20AF60180818D
:10162000813049F130F08230B9F1833009F475C06E
:1016300046C168EE73E080E090E00E94E41066EE40
:1016400071E082E196E00E94810F64EF71E080E03A
:1016500090E00E94E41028E833E140E050E06AEEB8
:1016600071E0CE010E94780AF601813011F4808386
:1016700002C0108224C120ED37E040E050E06FEE60
:1016800071E0CE010E94780A813021F482E0F601F7
:10169000808302C081E03FC008E813E120E030E031
:1016A00046EF51E06AEF71E0CE010E94BB0A813043
:1016B00089F520ED37E040E050E065E072E0CE01D2
:1016C0000E94780A20ED37E040E050E063E172E0EC
:1016D000CE010E94780A00EA1FE020E030E042E2FA
:1016E00052E066E272E0CE010E94BB0A813049F00E
:1016F00020ED37E040E050E062E372E0CE010E946E
:10170000780A83E0F601808382E0FE01EB57FD4F0B
:10171000808303C082E0F601D1C089819E012B57EE
:101720003D4F7901FE01EA57FD4F5F01873011F10E
:1017300000EA1FE020E030E04FE352E065E472E0B1
:10174000CE010E94BB0AF7018083F5019081F70169
:10175000808198130AC08D858F5F8D878D858A3033
:1017600048F01D8687E0808305C0F7018081F50180
:1017700080831D86F7018081F5018083F7016081F8
:1017800087EE95E00E94830FF70180818430B9F1E4
:1017900060F4823009F1833009F091C028E833E128
:1017A00040E050E060E772E01DC0863009F46EC092
:1017B00090F1873009F083C000EA1FE020E030E0BC
:1017C0004CE551E062ED71E0CE010E94BB0AF601EA
:1017D000108282E0F70172C028E833E140E050E077
:1017E00064E572E0CE01DF91CF911F910F91FF90E0
:1017F000EF90DF90CF90BF90AF900C94780A00EA02
:101800001FE020E030E040ED51E06BE772E0CE01F8
:101810000E94BB0A54C066E872E082E196E00E9432
:10182000810F6CE076E082E196E00E94730F66E93A
:1018300072E082E196E00E94810F66E076E082E14C
:1018400096E00E94730F28E833E140E050E06CE638
:1018500072E0CE010E94780A813089F50E94B310AF
:101860006B017C010E94B31020915B03243039F19D
:10187000DC01CB018C199D09AE09BF0980329E4461
:10188000A105B105E0F40E944206ECCF0E94B3101E
:101890006B017C010E94B31020915B03243079F02E
:1018A000DC01CB018C199D09AE09BF0980329E4431
:1018B000A105B10520F40E944206ECCF8083DF91A0
:1018C000CF911F910F91FF90EF90DF90CF90BF903D
:1018D000AF900895CF93DF93EC0140E855E260E0CC
:1018E00070E087EE95E00E94BD1326E040E855E2E7
:1018F00060E070E082E196E00E94470E6AEE71E0DF
:1019000082E196E00E94E20168EE73E080E090E000
:101910000E94E410CE01DF91CF910C94FE0ACF9388
:10192000DF93EC018881811104C01E86CE010E94E4
:10193000FE0ACE01DF91CF910C9481028F92AF927B
:10194000CF92EF92FF920F931F932FE632E03F93D7
:101950002F933F932F931F92812CA12CCC24C394BF
:1019600079010AE912E020E041E069EF72E00E94AB
:10197000DE020F900F900F900F900F901F910F911C
:10198000FF90EF90CF90AF908F900895CF92DF921D
:10199000EF92FF920F931F93CF93DF93EC010E947E
:1019A0002D0601E02BED32E0AC0160E0CE010E949B
:1019B000A504CE010E942D062EEEC22E22E0D22ECC
:1019C00033E0E32E33E0F32E8C0120E040E060E0D2
:1019D000CE010E94DB03DF91CF911F910F91FF9009
:1019E000EF90DF90CF900895EF92FF920F931F93A7
:1019F000CF93DF937B01BA01E9014AE050E087EE23
:101A000095E00E945710B70187EE95E00E948E0F77
:101A10004AE050E0B80187EE95E00E945710BE0101
:101A200087EE95E0DF91CF911F910F91FF90EF909E
:101A30000C948E0F8CE593E00C946A0CCF92DF929D
:101A4000EF92FF920F931F938CE593E00E943F0665
:101A50008823B9F068EB7BE080E090E00E94E4101E
:101A60008EEEC82E82E0D82E93E0E92E93E0F92E78
:101A700000E010E020E040E060E08CE593E00E94B0
:101A8000DB038CE593E01F910F91FF90EF90DF90C7
:101A9000CF900C948F0C65E173E08CE096E00E948F
:101AA000C91164E273E086E096E00E94C91120E06B
:101AB0004BE06AE087EE95E00E94921344E150E02B
:101AC00060E070E08CE593E00C94F70187EE95E020
:101AD0000E94391386E096E00E945B118CE096E04C
:101AE0000C945B11FC01918D228D892F90E0805C1C
:101AF0009F4F821B91098F7399270895FC01918D47
:101B0000828D981731F0828DE80FF11D858D90E060
:101B100008958FEF9FEF0895FC01918D828D9817A6
:101B200061F0828DDF01A80FB11D5D968C91928DC1
:101B30009F5F9F73928F90E008958FEF9FEF0895BE
:101B4000FC01538D448D252F30E0842F90E0821BC3
:101B5000930B541710F0CF9608950197089582E0E3
:101B60009FE0892B49F082E496E0892B29F00E94BE
:101B7000020F81110C9442060895FC01848DDF014F
:101B8000A80FB11DA35ABF4F2C91848D90E00196F0
:101B90008F739927848FA689B7892C93A089B189DF
:101BA0008C9180648C93938D848D981306C00288E9
:101BB000F389E02D80818F7D80830895EF92FF92DD
:101BC0000F931F93CF93DF93EC0181E0888F9B8D60
:101BD0008C8D981305C0E889F989808185FD24C022
:101BE000F62E0B8D10E00F5F1F4F0F731127E02EA5
:101BF0008C8DE8120CC00FB607FCFACFE889F98982
:101C0000808185FFF5CFCE010E94BD0DF1CF8B8D78
:101C1000FE01E80FF11DE35AFF4FF0820B8FEA89B6
:101C2000FB898081806207C0EE89FF896083E88933
:101C3000F98980818064808381E090E0DF91CF9199
:101C40001F910F91FF90EF900895CF93DF93EC01D8
:101C5000888D8823C9F0EA89FB89808185FD05C0CC
:101C6000A889B9898C9186FD0FC00FB607FCF5CF06
:101C7000808185FFF2CFA889B9898C9185FFEDCF4E
:101C8000CE010E94BD0DE7CFDF91CF910895CF9295
:101C9000DF92EF92FF921F93CF93DF93EC016A01E3
:101CA0007B01122F60E874E88EE190E0A7019601B5
:101CB0000E94F414DA01C9010197A109B109B6958E
:101CC000A795979587959C01E889F98982E080839B
:101CD000211580E13807A8F0E889F989108260E4CD
:101CE00072E48FE090E0A70196010E94F414DA01FB
:101CF000C9010197A109B109B695A795979587954F
:101D00009C01EC85FD853083EE85FF852083188E50
:101D1000EC89FD891083EA89FB8980818061808359
:101D2000EA89FB89808188608083EA89FB898081D8
:101D300080688083EA89FB8980818F7D8083DF9141
:101D4000CF911F91FF90EF90DF90CF90089580E0AA
:101D500090E008951F920F920FB60F9211242F93C7
:101D60008F939F93EF93FF93E0912206F0912306C8
:101D70008081E0912806F091290682FD12C09081B1
:101D800080912B068F5F8F7320912C06821751F064
:101D9000E0912B06F0E0EE5EF94F958F80932B06D5
:101DA00001C08081FF91EF919F918F912F910F90B2
:101DB0000FBE0F901F9018951F920F920FB60F92A3
:101DC00011242F933F934F935F936F937F938F9340
:101DD0009F93AF93BF93EF93FF9382E196E00E94AE
:101DE000BD0DFF91EF91BF91AF919F918F917F9129
:101DF0006F915F914F913F912F910F900FBE0F9078
:101E00001F90189582E196E00E94720D21E0892BC7
:101E100009F420E0822F0895E2E1F6E013821282B5
:101E200088EE93E0A0E0B0E084839583A683B78337
:101E30008DE293E09183808385EC90E095878487A1
:101E400084EC90E09787868780EC90E0918B808B84
:101E500081EC90E0938B828B82EC90E0958B848B6D
:101E600086EC90E0978B868B118E128E138E148EDB
:101E7000089508950E9420110E94390F0E941A0DA2
:101E8000CFEADDE00E941E0D2097E1F30E94AF0D26
:101E9000F9CFCF92DF92EF92FF920F931F93CF93E0
:101EA000DF936C017A018B01C0E0D0E0CE15DF0535
:101EB00081F0D8016D918D01D601ED91FC910190D9
:101EC000F081E02DC6010995892B11F02196EECF06
:101ED0007E01C701DF91CF911F910F91FF90EF908D
:101EE000DF90CF900895DB0114964D915C9115978A
:101EF0006D917C91DC01ED91FC910280F381E02DEC
:101F000009940C94E201DC01ED91FC910190F081C7
:101F1000E02D09946DE672E00C94E2010F931F939B
:101F2000CF93DF93EC010E94E2018C01CE010E946D
:101F30008A0F800F911FDF91CF911F910F9108950C
:101F40008F929F92AF92BF92EF92FF920F931F9347
:101F5000CF93DF93CDB7DEB7A1970FB6F894DEBF6E
:101F60000FBECDBF7C01FA01CB0119A2223008F4CB
:101F70002AE08E010F5D1F4F822E912CA12CB12CD7
:101F8000BF01A50194010E94F414F901CA01015096
:101F900011096A3010F4605D01C0695CD8016C936E
:101FA000232B242B252B61F7B801C7010E94E201E6
:101FB000A1960FB6F894DEBF0FBECDBFDF91CF91D3
:101FC0001F910F91FF90EF90BF90AF909F908F90D7
:101FD00008952115310541F4DC01ED91FC9101904A
:101FE000F081E02D642F09940C94A00F0F931F93A0
:101FF000CF93DF93EC010E94E90F8C01CE010E9488
:102000008A0F800F911FDF91CF911F910F9108953B
:10201000CF92DF92EF92FF920F931F93CF93DF93B4
:102020002115310581F4DC01ED91FC910190F081E5
:10203000E02D642FDF91CF911F910F91FF90EF90D2
:10204000DF90CF9009942A30310501F577FF1DC04C
:102050006A017B01EC016DE20E94830F8C01442731
:102060005527BA014C195D096E097F092AE0CE0196
:102070000E94A00F800F911FDF91CF911F910F91B0
:10208000FF90EF90DF90CF9008952AE0DF91CF91FD
:102090001F910F91FF90EF90DF90CF900C94A00FC5
:1020A0009A01AB01770F660B770B0C9408100F9316
:1020B0001F93CF93DF93EC010E9450108C01CE014F
:1020C0000E948A0F800F911FDF91CF911F910F9176
:1020D00008951F920F920FB60F9211242F933F93E2
:1020E0008F939F93AF93BF938091B0069091B10669
:1020F000A091B206B091B3063091AF0626E0230F4F
:102100002D3720F40296A11DB11D05C029E8230F2B
:102110000396A11DB11D2093AF068093B006909346
:10212000B106A093B206B093B3068091B406909125
:10213000B506A091B606B091B7060196A11DB11DD6
:102140008093B4069093B506A093B606B093B706F5
:10215000BF91AF919F918F913F912F910F900FBEA3
:102160000F901F9018952FB7F8946091B00670915A
:10217000B1068091B2069091B3062FBF08953FB784
:10218000F8948091B4069091B506A091B606B091EE
:10219000B70626B5A89B05C02F3F19F00196A11DD3
:1021A000B11D3FBFBA2FA92F982F8827820F911DED
:1021B000A11DB11DBC01CD0143E0660F771F881F33
:1021C000991F4A95D1F708958F929F92AF92BF922F
:1021D000CF92DF92EF92FF926B017C010E94BF10C1
:1021E0004B015C01C114D104E104F10401F10E942E
:1021F0004B140E94BF10DC01CB0188199909AA0970
:10220000BB09883E9340A105B10560F321E0C21AE5
:10221000D108E108F10888EE880E83E0981EA11C21
:10222000B11CC114D104E104F10419F7DBCFFF9014
:10223000EF90DF90CF90BF90AF909F908F900895D8
:10224000789484B5826084BD84B5816084BD85B591
:10225000826085BD85B5816085BDEEE6F0E0808158
:1022600081608083E1E8F0E0108280818260808379
:10227000808181608083E0E8F0E0808181608083FC
:10228000E1EBF0E0808184608083E0EBF0E080812E
:1022900081608083EAE7F0E08081846080838081D0
:1022A0008260808380818E7F80838081806880834C
:1022B0001092C1000895FC01808191810C94011657
:1022C000CF93DF93EC0188819981009711F00E94F0
:1022D0000116198218821D821C821B821A82DF91CC
:1022E000CF9108950F931F93CF93DF93EC018B0150
:1022F0006F5F7F4F888199810E948A16009731F025
:10230000998388831B830A8381E001C080E0DF9189
:10231000CF911F910F910895CF93DF93EC018881A6
:102320009981892B29F08A819B818617970760F410
:10233000CE010E947211882341F08C819D81892BEE
:1023400019F4E881F981108281E0DF91CF9108953D
:10235000EF92FF920F931F93CF93DF93EC017B01DA
:102360008A01BA010E948C11811104C0CE010E9421
:10237000601107C01D830C83B701888199810E9479
:102380006417CE01DF91CF911F910F91FF90EF90D5
:102390000895FC0111821082138212821582148228
:1023A0006115710551F0FB0101900020E9F73197AB
:1023B000AF01461B570B0C94A81108952091FA0603
:1023C0003091FB0628173907B9F49091B80680912F
:1023D000B906981789F0E091B806F0E0E654F94F95
:1023E00080812091B80630E02F5F3F4F2F73332755
:1023F0002093B80690E008958FEF9FEF08951F9304
:10240000CF93DF93DC015C968D919C915D97009753
:1024100039F421E030E013963C932E9312973BC0A1
:102420005196ED91FC91529750962C915097322FE6
:1024300030951FB75E964C915E97742F727041FD78
:102440006095F8944081772311F0422B01C043231B
:102450004083EC012197F1F748E0508160FF02C012
:10246000522B01C053235083EC012197F1F766955D
:10247000415099F78081772319F08323808302C02C
:10248000282B20831FBF5C968D919C915D970197AF
:10249000F1F781E090E0DF91CF911F9108950895C9
:1024A0002091FA063091FB062817390771F49091B4
:1024B000B8068091B906981741F0E091B806F0E0AF
:1024C000E654F94F808190E008958FEF9FEF0895D3
:1024D0002091FA063091FB062817390771F4809194
:1024E000B9062091B80690E0805C9F4F821B91094D
:1024F00060E470E00E94E014089580E090E00895A8
:10250000E091FA06F091FB06E817F90769F4A38950
:10251000B4899C918589809589238C931092FB06C0
:102520001092FA0681E0089580E00895CF93DF933A
:10253000EC018A8D9B8D892BF1F08091FA069091A8
:10254000FB06C817D907B9F0009711F00E94801256
:102550008E8D8E7F8E8F1092B9061092B806D09312
:10256000FB06C093FA06EB89FC8990818D89892B43
:10257000808381E001C080E0DF91CF9108951F92B8
:102580000F920FB60F9211242F933F934F935F93A7
:102590006F937F938F939F93AF93BF93EF93FF932B
:1025A000E091FA06F091FB06309709F451C0968D40
:1025B000A685B785858591FF04C09C91892329F460
:1025C00047C09C91892309F043C0A389B4899C9199
:1025D0008589809589238C93868997890197F1F75E
:1025E000608D718DA685B785558538E020E0CB01DB
:1025F0000197F1F7822F90E095958795282F4C91C0
:10260000452309F02068315091F7868D81FD209592
:102610008091B90690E001968F7399273091B806A2
:10262000381749F0A091B906B0E0A654B94F2C93E1
:102630008093B90603C0868D8160868F828D938DCD
:102640000197F1F7A389B4899C918589892B8C9393
:10265000FF91EF91BF91AF919F918F917F916F917A
:102660005F914F913F912F910F900FBE0F901F9050
:1026700018952BE433E0FC01318320830C94801205
:102680001F93CF93DF93EC01162F6E8D66956170CB
:1026900081E06827812F0E94B11461E0812F0E94A0
:1026A0007514812F90E0FC01ED5DFC4FE491E88B07
:1026B000FC01E95CFC4FE491F0E0EE0FFF1FEB5AE8
:1026C000FC4F859194919A8B898BDF91CF911F91CB
:1026D00008951F93CF93DF93EC01162F60E0812FB5
:1026E0000E9475148E8D81FD04C061E0812F0E94CF
:1026F000B1141C87812F90E0FC01ED5DFC4FE4914B
:10270000ED87FC01E95CFC4FE491F0E0EE0FFF1F68
:10271000E55BFC4F859194919F878E87DF91CF91E8
:102720001F9108951F93CF93DF93EC01162F1B8207
:102730001A8288EE93E0A0E0B0E08C839D83AE83A4
:10274000BF838BE493E0998388831F8A1E8A198E46
:10275000188E1B8E1A8E1D8E1C8E8E8D8E7F20FBEA
:1027600081F98E8F642FCE010E944013612FCE011C
:10277000DF91CF911F910C946913CF93DF93EC01FC
:102780009A01AB011B8E1A8E198E188E1F8A1E8A13
:1027900060E874E88EE190E00E941615F90124309B
:1027A000310518F0C901039702C081E090E09D8FC8
:1027B0008C8F6C85663108F069C0C9019695879544
:1027C0008431910510F0439702C081E090E09F8B27
:1027D0008E8B369718F0C901059702C081E090E012
:1027E000998F888FC901880F991F280F391F369537
:1027F0002795369527952D30310518F02C50310945
:1028000002C021E030E03B8F2A8F90916800683051
:1028100050F021E06E3008F420E081E001C0880F24
:102820002A95EAF701C084E0892B809368009C8593
:10283000983038F09E3040F0963148F020E030E09B
:1028400008C02DE630E005C02BE630E002C02CE6E3
:1028500030E03C8B2B8B983030F481E001C0880F46
:102860009A95EAF70EC0292F30E09E3018F42850D0
:10287000310902C02E50310981E001C0880F2A952C
:10288000EAF78D8B8C8D9D8D0197F1F7CE01DF914D
:10289000CF910C9496120895833081F028F4813002
:1028A00099F08230A1F008958730A9F08830B9F00E
:1028B0008430D1F4809180008F7D03C080918000AE
:1028C0008F7780938000089584B58F7702C084B598
:1028D0008F7D84BD08958091B0008F7703C0809173
:1028E000B0008F7D8093B0000895CF93DF9390E088
:1028F000FC01ED5DFC4F2491FC01E95CFC4F8491EF
:10290000882361F190E0880F991FFC01E15AFC4F88
:10291000C591D491FC01EB5AFC4FA591B491611182
:1029200009C09FB7F8948881209582238883EC9111
:102930002E230BC0623061F49FB7F8948881322F48
:10294000309583238883EC912E2B2C939FBF06C058
:102950008FB7F894E8812E2B28838FBFDF91CF911A
:1029600008951F93CF93DF93282F30E0F901E15FA3
:10297000FC4F8491F901ED5DFC4FD491F901E95CC4
:10298000FC4FC491CC23C1F0162F81110E944C142E
:10299000EC2FF0E0EE0FFF1FEB5AFC4FA591B49126
:1029A0009FB7F894111104C08C91D095D82302C020
:1029B000EC91DE2BDC939FBFDF91CF911F910895A7
:1029C00097FB072E16F4009407D077FD09D00E94DC
:1029D000461507FC05D03EF4909581959F4F0895CC
:1029E000709561957F4F0895A1E21A2EAA1BBB1B1B
:1029F000FD010DC0AA1FBB1FEE1FFF1FA217B307CB
:102A0000E407F50720F0A21BB30BE40BF50B661FE0
:102A1000771F881F991F1A9469F7609570958095A4
:102A200090959B01AC01BD01CF010895052E97FB48
:102A30001EF400940E942D1557FD07D00E94F41437
:102A400007FC03D04EF40C942D155095409530950D
:102A500021953F4F4F4F5F4F08959095809570950A
:102A600061957F4F8F4F9F4F0895EE0FFF1F059089
:102A7000F491E02D09940E945A15A59F900DB49FE2
:102A8000900DA49F800D911D11240895AA1BBB1BBE
:102A900051E107C0AA1FBB1FA617B70710F0A61B5E
:102AA000B70B881F991F5A95A9F780959095BC017F
:102AB000CD010895A29FB001B39FC001A39F700DE7
:102AC000811D1124911DB29F700D811D1124911D36
:102AD00008950F931F93CF93DF938230910510F4E5
:102AE00082E090E0E091FE06F091FF0620E030E009
:102AF000A0E0B0E0309719F140815181028113814B
:102B000048175907C8F08417950769F4109731F0F2
:102B100012960C93129713961C9327C00093FE06EF
:102B20001093FF0622C02115310519F042175307F3
:102B300018F49A01BD01EF01DF01F801DBCF211587
:102B40003105F9F0281B390B2430310580F48A81D6
:102B50009B816115710521F0FB019383828304C081
:102B60009093FF068093FE06FE01329644C0FE015C
:102B7000E20FF31F81939193225031093983288307
:102B80003AC02091FC063091FD06232B41F42091A0
:102B90000201309103013093FD062093FC06209141
:102BA0000001309101012115310541F42DB73EB7E7
:102BB0004091040150910501241B350BE091FC0666
:102BC000F091FD06E217F307A0F42E1B3F0B281728
:102BD000390778F0AC014E5F5F4F2417350748F096
:102BE0004E0F5F1F5093FD064093FC068193919317
:102BF00002C0E0E0F0E0CF01DF91CF911F910F9193
:102C00000895CF93DF93009709F481C0FC013297B8
:102C100013821282A091FE06B091FF06109781F4F4
:102C200020813181820F931F2091FC063091FD0697
:102C30002817390751F5F093FD06E093FC0667C0AD
:102C4000ED0120E030E0CE17DF0740F44A815B81E0
:102C50009E0141155105F1F0EA01F5CFD383C283FE
:102C600040815181840F951FC817D90759F4888175
:102C70009981840F951F0296918380838A819B811D
:102C8000938382832115310529F4F093FF06E093A5
:102C9000FE063DC0E901FB83EA8349915991C40FC7
:102CA000D51FEC17FD0761F480819181840F951F7A
:102CB0000296E90199838883828193819B838A8329
:102CC000E0E0F0E012968D919C911397009719F037
:102CD000FD01DC01F7CF8D919C9111979D012E5F35
:102CE0003F4F820F931F2091FC063091FD0628175D
:102CF000390769F4309729F41092FF061092FE0606
:102D000002C013821282B093FD06A093FC06DF91ED
:102D1000CF910895A0E0B0E0E0E9F6E10C948917C6
:102D2000EC01009721F4CB010E946915B4C0FC01AD
:102D3000E60FF71F9C0122503109E217F30708F450
:102D4000A8C0D9010D911C91119706171707B0F073
:102D50000530110508F49BC0C80104978617970732
:102D600008F495C002501109061B170B019311932B
:102D70006D937C93CF010E94011689C05B01A01A5C
:102D8000B10A4C01800E911EA091FE06B091FF0683
:102D9000612C712CE12CF12C109709F446C08D9117
:102DA0009C911197A815B905B1F56C0142E0C40ECC
:102DB000D11CCA14DB0478F14C018A189B08640109
:102DC00042E0C40ED11C1296BC9012971396AC919F
:102DD000B5E0CB16D10440F0B282A3839182808209
:102DE000D9016D937C9309C00E5F1F4F800F911F17
:102DF000F90191838083EB2DFA2FE114F10431F076
:102E0000D7011396FC93EE93129741C0F093FF06FF
:102E1000E093FE063CC06816790608F43C017D018B
:102E200012960D90BC91A02DB7CF8091FC06909189
:102E3000FD0688169906E1F466167706C8F48091B7
:102E4000000190910101009741F48DB79EB7409128
:102E5000040150910501841B950BE817F907C8F48C
:102E6000F093FD06E093FC06F901718360830FC0C7
:102E7000CB010E9469157C01009759F0A801BE01A1
:102E80000E945017CE010E940116C70104C0CE0156
:102E900002C080E090E0CDB7DEB7EEE00C94A5175D
:102EA000FB01DC0102C001900D9241505040D8F767
:102EB0000895FC018191861721F08823D9F799277D
:102EC00008953197CF010895FB01DC0101900D9227
:102ED0000020E1F70895FB0151915523A9F0BF01AE
:102EE000DC014D9145174111E1F759F4CD010190F5
:102EF000002049F04D9140154111C9F3FB014111EA
:102F0000EFCF81E090E0019708952F923F924F928A
:102F10005F926F927F928F929F92AF92BF92CF9269
:102F2000DF92EF92FF920F931F93CF93DF93CDB772
:102F3000DEB7CA1BDB0B0FB6F894DEBF0FBECDBFEA
:102F400009942A88398848885F846E847D848C84BB
:102F50009B84AA84B984C884DF80EE80FD800C81C4
:102F60001B81AA81B981CE0FD11D0FB6F894DEBFA7
:102F70000FBECDBFED01089511E0C7EBD1E004C055
:102F8000FE010E9435152196C83BD107C9F7F89478
:022F9000FFCF71
:102F92000000000720004D51497364700020494E23
:102FA200495449414C002053544152540049502045
:102FB200434F4E4649470020475052534143540025
:102FC200205354415455530054435020434C4F53C3
:102FD2004544002054435020434F4E4E45435449EC
:102FE2004E470020434F4E4E454354204F4B004323
:102FF2004F4E4E454354204641494C0050445020C8
:103002004445414354004552524F5200434F4E4EA5
:10301200454354004D5154542E5443505F466C6105
:1030220067203D2054727565004D6F726500546FC4
:10303200706963203A20270027204D65737361670A
:1030420065203A27004D6573736167652049442006
:103052003A00446973636F6E6E656374696E6700EC
:103062002E0041542B434950534855540D0A002019
:10307200006E6F6E65002B2B2B0041540D0A004130
:103082005445310D0A00302C310041542B43524536
:10309200473F0D0A0041542B4349504D55583D308E
:1030A2000D0A0041542B4349504D4F44453D310DCB
:1030B2000A003A20310041542B43474154543F0DFA
:1030C2000A0041542B43474154543D310D0A0053E9
:1030D200544154450041542B434950535441545593
:1030E200530D0A0041542B435354543D22616E74D4
:1030F200656C2E6C7465222C22222C22220D0A0071
:1031020041542B43494943520D0A0041542B434930
:103112004653520D0A0041542B43495053544152D5
:10312200543D22544350222C22006F73387861722E
:1031320039754C3557716F4173566D77574B7337ED
:103142003549414F496937734F6A494B47473147C0
:1031520031417A4C514C6337776D7267554B654EEE
:103162006743734D4C6E346E77420047736D436C08
:1031720069656E74546573742F7265616400486585
:103182006C6C6F2066726F6D2053482D76342D3033
:1031920030310047736D436C69656E7454657374A6
:1031A2002F6C6564006D7174742E666C6573706942
:1031B2002E696F00313838330000000000DE0D49FF
:1031C2000FA00D250E720D8C0D7E0D6E616E0069C5
:1031D2006E66006F76660000000000FF11490FA7BF
:0A31E2000E4F126812DE11501200A9
:00000001FF
